:100000000C9483000C94B4000C94B4000C94B400D1
:100010000C94B4000C94B4000C94B4000C94B40090
:100020000C94B4000C94B4000C94B4000C94B40080
:100030000C94B4000C94B4000C94B4000C94B40070
:100040000C94B4000C94B4000C94B4000C94B40060
:100050000C94B4000C94B4000C94B4000C9496026C
:100060000C94B4000C9460020C9436020C94B4000E
:100070000C94B4000C94B4000C94B4000C94B40030
:100080000C94B4000C94B4000C94B4000C94B40020
:100090000C94B4000C94B4000C94B4000C94B40010
:1000A0000C94B4000C94B4000C94B4000C94B40000
:1000B0000C94B4000C94B4000C94B4000C94B400F0
:1000C0000C94B4000C94B4000C94B4000C94B400E0
:1000D0000C94B4000C94B4000C94B4000C94B400D0
:1000E0000C94B4000C94E3000C9406010C94990158
:1000F0000C94B6000C94F2000C94E0020C944C01A9
:100100000C941401E00211241FBECFEFD1E2DEBF38
:10011000CDBF00E00CBF12E0A0E0B2E0E0E0FFE005
:1001200000E00BBF02C007900D92A035B107D9F7D0
:100130002AE0A0E5B2E001C01D92A733B207E1F7C3
:1001400010E0C3E8D0E000E006C021970109802F4D
:10015000FE010E947607C238D10780E00807A9F7A0
:100160000E947A030C947E070C940000AF92BF9219
:10017000CF92DF92EF92FF920F931F93CF93DF9373
:100180006C017B018B01040F151FEB015E01AE18A2
:10019000BF08C017D10759F06991D601ED91FC91C4
:1001A0000190F081E02DC6011995892B79F7C501E1
:1001B000DF91CF911F910F91FF90EF90DF90CF9043
:1001C000BF90AF900895FC01538D448D252F30E0F2
:1001D000842F90E0821B930B541710F0CF96089554
:1001E00001970895FC01918D828D981761F0A28D81
:1001F000AE0FBF2FB11D5D968C91928D9F5F9F7347
:10020000928F90E008958FEF9FEF0895FC01918DFC
:10021000828D981731F0828DE80FF11D858D90E069
:1002200008958FEF9FEF0895FC01918D228D892F06
:1002300090E0805C9F4F821B91098F7399270895EE
:1002400088E999E00E94140121E0892B09F420E05B
:10025000822F0895FC01A48DA80FB92FB11DA35AB8
:10026000BF4F2C91848D90E001968F739927848FD6
:10027000A689B7892C93A089B1898C9183708064F9
:100280008C93938D848D981306C00288F389E02D9A
:1002900080818F7D80830895EF92FF920F931F934B
:1002A000CF93DF93EC0181E0888F9B8D8C8D981329
:1002B0001AC0E889F989808185FF15C09FB7F89435
:1002C000EE89FF896083E889F98980818370806481
:1002D00080839FBF81E090E0DF91CF911F910F91CC
:1002E000FF90EF900895F62E0B8D10E00F5F1F4FDB
:1002F0000F731127E02E8C8D8E110CC00FB607FCEA
:10030000FACFE889F989808185FFF5CFCE010E9477
:100310002A01F1CFEB8DEC0FFD2FF11DE35AFF4FBA
:10032000F0829FB7F8940B8FEA89FB898081806205
:10033000CFCFCF93DF93EC01888D8823B9F0AA89C2
:10034000BB89E889F9898C9185FD03C0808186FD90
:100350000DC00FB607FCF7CF8C9185FFF2CF8081DF
:1003600085FFEDCFCE010E942A01E9CFDF91CF9129
:10037000089580E090E0892B29F00E9420018111EE
:100380000E94000080E090E0892B49F080E090E03E
:10039000892B29F00E94000081110E94000080E05A
:1003A00090E0892B49F080E090E0892B29F00E94B1
:1003B000000081110E94000080E090E0892B49F04C
:1003C00080E090E0892B29F00E94000081110C94BC
:1003D000000008953FB7F894809151029091520225
:1003E000A0915302B091540226B5A89B05C02F3F9F
:1003F00019F00196A11DB11D3FBFBA2FA92F982F4B
:100400008827BC01CD01620F711D811D911D42E045
:10041000660F771F881F991F4A95D1F70895DC0151
:100420008D919C91DC01ED91FC910190F081E02D8A
:1004300019940F931F93CF93DF93082F162FC8ECB7
:10044000D8E060E98AA59BA50E940F02602F6F7714
:100450008AA59BA50E940F02612F6F778AA59BA595
:10046000DF91CF911F910F910C940F021F920F9269
:100470000FB60F9211240BB60F922F933F934F9309
:100480005F936F937F938F939F93AF93BF93EF93FC
:10049000FF9388E999E00E942A01FF91EF91BF91B3
:1004A000AF919F918F917F916F915F914F913F910C
:1004B0002F910F900BBE0F900FBE0F901F901895AD
:1004C0001F920F920FB60F9211240BB60F922F931B
:1004D0008F939F93EF93FF93E091A809F091A9095F
:1004E0008081E091AE09F091AF0982FD1DC090813D
:1004F0008091B1098F5F8F732091B209821741F00B
:10050000E091B109F0E0E856F64F958F8093B1097C
:10051000FF91EF919F918F912F910F900BBE0F90B4
:100520000FBE0F901F9018958081F2CF1F920F92EF
:100530000FB60F9211242F933F938F939F93AF93F6
:10054000BF938091550290915602A0915702B091AD
:1005500058023091500223E0230F2D3758F50196B1
:10056000A11DB11D20935002809355029093560215
:10057000A0935702B0935802809151029091520279
:10058000A0915302B09154020196A11DB11D809318
:10059000510290935202A0935302B0935402BF9120
:1005A000AF919F918F913F912F910F900FBE0F9020
:1005B0001F90189526E8230F0296A11DB11DD2CFDA
:1005C000E8E9F9E01382128288EE93E0A0E0B0E05F
:1005D00084839583A683B78381E492E091838083AB
:1005E00085EC90E09587848784EC90E097878687F8
:1005F00080EC90E0918B808B81EC90E0938B828BF0
:1006000082EC90E0958B848B86EC90E0978B868BC8
:10061000118E128E138E148EF093360AE093350AE3
:10062000E8ECF8E0118210821382128215821482A3
:1006300017821682118610861386128615861486F6
:1006400017861686118A108A138A128A158A148AC6
:10065000178A168A118E108E138E128E158E148E96
:10066000178E168E11A210A213A212A215A214A206
:1006700017A216A211A610A685E39AE093A782A757
:1006800014A615A616A613AA12AA15AA14AA8FEFC5
:100690009FEF97AB86AB91AF80AF83E08093020969
:1006A00013AE14AE15AE16AE10928709E7E0F9E06E
:1006B00080E8DF011D928A95E9F710928A0910926D
:1006C0008B0910928C0910928D0910928E0910924C
:1006D0008F0910929009109291091092920910922C
:1006E000930910929409109295091092960910920C
:1006F00097090895CF93DF93CDB7DEB768970FB60C
:10070000F894DEBF0FBECDBF789484B5826084BDFF
:1007100084B5816084BD85B5826085BD85B5816005
:1007200085BD80916E00816080936E001092810083
:10073000809181008260809381008091810081603E
:1007400080938100809180008160809380008091FF
:10075000B10084608093B1008091B000816080938B
:10076000B00080919100826080939100809191000F
:1007700081608093910080919000816080939000CF
:100780008091A10082608093A1008091A10081608E
:100790008093A1008091A00081608093A00080914F
:1007A00021018260809321018091210181608093E9
:1007B00021018091200181608093200180917A0045
:1007C000846080937A0080917A00826080937A00BE
:1007D00080917A00816080937A0080917A008068AD
:1007E00080937A001092C10011B884B18E7084B9E0
:1007F00087B1847487B98DB187708DB980B38170EA
:1008000080BB13BA809101018670809301018091B1
:100810000401807C80930401809107018E70809395
:10082000070180910A01807880930A018FEF82B9D5
:1008300085B1816F85B988B18B6B88B98EB1886FAE
:100840008EB981B38E6F81BB8FE384BB809102012F
:10085000896F80930201809105018F638093050168
:1008600080910801816F8093080180910B018F674F
:1008700080930B0161E178E044ED57E087E997E070
:10088000EBE8F8E021E02193DC012D93CD01DA01C2
:100890001D92AD01DB011D921D92BD01B8E0E83C47
:1008A000FB0789F7E091F208F091F3080190F081DD
:1008B000E02DA089B18982E08C93A485B5851C9236
:1008C000A685B7858FE38C93108EA489B58986E0C1
:1008D0008C93A289B3898C9180618C93A289B3890E
:1008E0008C9188608C93A289B3898C9180688C9359
:1008F0000288F389E02D80818F7D80831092F40837
:100900001092F6081092F5081092FD081092FC085B
:100910001092FB081092FA088FEF9FEF9093FF0858
:100920008093FE0890930109809300092FB7F894F3
:100930008091550290915602A0915702B0915802B1
:100940002FBF80938A0990938B09A0938C09B09351
:100950008D091092870910920409109203091092D0
:1009600005091092060910928909109288091092BF
:100970000209E0E0F2E0A9E5B2E081918D9322E086
:10098000ED33F207D1F780B1982F917090939908C9
:1009900081FB992790F99093AD0882FB992790F9F4
:1009A00090939E0883FB992790F990939A0884FB73
:1009B000992790F99093930885FB992790F9909344
:1009C0009D0886FB992790F990939B08881F88279C
:1009D000881F8093920883B1982F91709093BD08DF
:1009E00084FB992790F99093BA0885FB992790F991
:1009F0009093B90886FB992790F99093C008881FB7
:100A00008827881F8093BF0886B1982F9170909394
:100A1000A50881FB992790F990938E0883FB99276D
:100A200090F990939C0884FB992790F990939108F2
:100A300085FB992790F990938D08881F8827881F38
:100A400080938C088CB183FB992790F99093B1081F
:100A500084FB992790F99093980885FB992790F942
:100A60009093940886FB992790F99093C408881F67
:100A70008827881F8093C5088FB181FB992790F93B
:100A80009093C20882FB992790F99093C30883FB47
:100A9000992790F99093C10884FB992790F9909336
:100AA000B60885FB992790F99093B80886FB99279B
:100AB00090F99093B708881F8827881F8093B20801
:100AC00082B3982F91709093A40881FB992790F995
:100AD00090938F0882FB992790F99093900883FB5D
:100AE000992790F99093C60884FB992790F99093E1
:100AF000C70885FB882780F98093B00880910001A2
:100B0000982F91709093AC0883FB992790F990935C
:100B1000AE0884FB992790F99093BC0885FB992730
:100B200090F99093BB0886FB992790F99093BE08A3
:100B3000881F8827881F8093AB0880910301982F16
:100B400091709093AF0881FB992790F99093AA0830
:100B500082FB992790F99093A20883FB992790F93B
:100B600090939F0884FB992790F99093A00885FBA8
:100B7000882780F98093A90880910601982F9170A9
:100B80009093B30884FB992790F99093A80885FB6C
:100B9000992790F99093A10886FB992790F9909353
:100BA000B408881F8827881F8093A70880910901AF
:100BB000982F91709093A30881FB992790F99093B7
:100BC000970882FB992790F99093A60883FB9927B1
:100BD00090F990938B0884FB992790F9909396084D
:100BE00085FB992790F99093950886FB882780F9D3
:100BF0008093B50888E999E00E94990141E158E0A5
:100C00005A8B498B17E9812E17E0912E64ED77E01E
:100C10007C8B6B8B0BE8202E08E0302E188E1F8A01
:100C2000D1018C91811150C1E989FA891182108218
:100C3000AB89BC898C918823C1F0E989FA898081CC
:100C40009181059790F060E0EF89F88DEA56FD4FAD
:100C500080810E941902AB89BC891C92E989FA89BA
:100C600011821082E1E0D401EC93D4011C91113087
:100C7000B1F5F10180818111A1C0EF89F88DE75AAA
:100C8000FD4F008166E6802F0E941902EF89F88DE2
:100C9000EA56FD4F0083AB89BC891C9322E0F40126
:100CA00020830E94EA01EF89F88DA3E0EE0FFF1F79
:100CB000AA95E1F7E155FA4F8B019C0160831183FE
:100CC000828333831482158216821782EF89F88D0E
:100CD000EE0FFF1FEB5CFA4F118210826FC01230D3
:100CE00009F08AC00E94EA012B013C01D1012C913C
:100CF0008F89988D880F991F21115BC0FC01EB5CD7
:100D0000FA4FFE8BED8BA081B181E3E0A83CB105E9
:100D100008F0C0C0A301920160E070E0CB014986F9
:100D20003A876B865C876D877E878F87988BEF8984
:100D3000F88D63E0EE0FFF1F6A95E1F7E155FA4F7A
:100D40003081398341814A8352815B8363816C8323
:100D500074817D8385818E8396819F8327812887F7
:100D600029853A854B855C8560E070E080E090E005
:100D7000A980BA80CB80DC80ED80FE800F81188551
:100D80000E946D07D9F0D0F049815A81A41BB50BA0
:100D90004A0E5B1EAD89BE894D925C9220833183E1
:100DA0003B8532834C8543831482158216821782D9
:100DB00005C08B5C9A4FDC011D921C926F89788D67
:100DC0006F5F7F4F788F6F8B7FEF271A370A8B8982
:100DD0009C8901969C8B8B8B9FEF891A990AA98914
:100DE000BA891296BA8BA98BEF89F88DFD9709F015
:100DF00017CF0E94B901C7CD133011F5F1018081E1
:100E00008823E1F2E4E0EC930E94EA01EF89F88D97
:100E100043E0EE0FFF1F4A95E1F7E35BFC4F8B01C8
:100E20009C0160831183828333831482158216822E
:100E30001782EF89F88DEE0FFF1FED52FD4F4CCF5B
:100E4000143009F0BBCF0E94EA012B013C01D10113
:100E50002C918F89988D880F991F211104C08D5274
:100E60009D4FFC0139CFDC01AD52BD4FBE8BAD8B28
:100E70000D90BC91A02DA83CB10578F060E0EF8901
:100E8000F88DEA56FD4F80810E941902EB89FC899A
:100E90001082E1E0D401EC9391CFA301920160E0D4
:100EA00070E0CB0149863A876B865C876D877E87C9
:100EB0008F87988BEF89F88D83E0EE0FFF1F8A955F
:100EC000E1F7E35BFC4F3CCFA989BA898D919C91F6
:100ED000119701968D939C93ABCE2A153B054C053B
:100EE0005D056E057F05800791070895EE0FFF1FD2
:100EF000881F8BBF0790F691E02D1994F894FFCFCF
:100F00002A28262422312F2D2B2927383634323017
:100F10002E2C3F3D3B3937353331464442403E3C31
:100F20003A38364B49474543413F3D504E4C4A487D
:100F300046445553514F4D4B5A5856545200000099
:100F4000004C01B600E30099011401F20006010013
:00000001FF
